{
  "contractName": "Graph",
  "abi": [
    {
      "inputs": [],
      "stateMutability": "nonpayable",
      "type": "constructor"
    },
    {
      "inputs": [
        {
          "internalType": "address",
          "name": "",
          "type": "address"
        },
        {
          "internalType": "uint256",
          "name": "",
          "type": "uint256"
        }
      ],
      "name": "access",
      "outputs": [
        {
          "internalType": "string",
          "name": "",
          "type": "string"
        }
      ],
      "stateMutability": "view",
      "type": "function",
      "constant": true
    },
    {
      "inputs": [
        {
          "internalType": "string",
          "name": "",
          "type": "string"
        }
      ],
      "name": "graphOwner",
      "outputs": [
        {
          "internalType": "address",
          "name": "",
          "type": "address"
        }
      ],
      "stateMutability": "view",
      "type": "function",
      "constant": true
    },
    {
      "inputs": [],
      "name": "graphPrice",
      "outputs": [
        {
          "internalType": "uint256",
          "name": "",
          "type": "uint256"
        }
      ],
      "stateMutability": "view",
      "type": "function",
      "constant": true
    },
    {
      "inputs": [],
      "name": "userStartBalance",
      "outputs": [
        {
          "internalType": "uint256",
          "name": "",
          "type": "uint256"
        }
      ],
      "stateMutability": "view",
      "type": "function",
      "constant": true
    },
    {
      "inputs": [
        {
          "internalType": "uint256",
          "name": "",
          "type": "uint256"
        }
      ],
      "name": "users",
      "outputs": [
        {
          "internalType": "address",
          "name": "",
          "type": "address"
        }
      ],
      "stateMutability": "view",
      "type": "function",
      "constant": true
    },
    {
      "inputs": [
        {
          "internalType": "address",
          "name": "user",
          "type": "address"
        }
      ],
      "name": "login",
      "outputs": [
        {
          "internalType": "bool",
          "name": "",
          "type": "bool"
        }
      ],
      "stateMutability": "nonpayable",
      "type": "function"
    },
    {
      "inputs": [
        {
          "internalType": "address",
          "name": "user",
          "type": "address"
        },
        {
          "internalType": "string",
          "name": "graph",
          "type": "string"
        }
      ],
      "name": "hasAccess",
      "outputs": [
        {
          "internalType": "bool",
          "name": "",
          "type": "bool"
        }
      ],
      "stateMutability": "view",
      "type": "function",
      "constant": true
    },
    {
      "inputs": [
        {
          "internalType": "string",
          "name": "graph",
          "type": "string"
        }
      ],
      "name": "buyAccess",
      "outputs": [
        {
          "internalType": "bool",
          "name": "",
          "type": "bool"
        }
      ],
      "stateMutability": "payable",
      "type": "function",
      "payable": true
    },
    {
      "inputs": [
        {
          "internalType": "string",
          "name": "graph",
          "type": "string"
        }
      ],
      "name": "newGraph",
      "outputs": [
        {
          "internalType": "bool",
          "name": "",
          "type": "bool"
        }
      ],
      "stateMutability": "nonpayable",
      "type": "function"
    }
  ],
  "bytecode": "0x6080604052671bc16d674ec800006000556798a7d9b8314c000060015534801561002857600080fd5b5061134e806100386000396000f3fe6080604052600436106100865760003560e01c8063a834c43d11610059578063a834c43d1461016d578063a8ccb2911461019d578063f0da0026146101da578063f3baaa9814610205578063f581fb681461024257610086565b806330191efd1461008b57806335a6861a146100c8578063365b98b21461010557806360b058d114610142575b600080fd5b34801561009757600080fd5b506100b260048036038101906100ad9190610ae3565b61027f565b6040516100bf9190610b6d565b60405180910390f35b3480156100d457600080fd5b506100ef60048036038101906100ea9190610bb4565b6102c8565b6040516100fc9190610bfc565b60405180910390f35b34801561011157600080fd5b5061012c60048036038101906101279190610c4d565b61043e565b6040516101399190610b6d565b60405180910390f35b34801561014e57600080fd5b5061015761047d565b6040516101649190610c89565b60405180910390f35b61018760048036038101906101829190610ae3565b610483565b6040516101949190610bfc565b60405180910390f35b3480156101a957600080fd5b506101c460048036038101906101bf9190610ca4565b610631565b6040516101d19190610bfc565b60405180910390f35b3480156101e657600080fd5b506101ef6107f0565b6040516101fc9190610c89565b60405180910390f35b34801561021157600080fd5b5061022c60048036038101906102279190610ae3565b6107f6565b6040516102399190610bfc565b60405180910390f35b34801561024e57600080fd5b5061026960048036038101906102649190610d00565b6108d0565b6040516102769190610dbf565b60405180910390f35b6003818051602081018201805184825260208301602085012081835280955050505050506000915054906101000a900473ffffffffffffffffffffffffffffffffffffffff1681565b600080600280549050905060005b8181101561036d578373ffffffffffffffffffffffffffffffffffffffff166002828154811061030957610308610de1565b5b9060005260206000200160009054906101000a900473ffffffffffffffffffffffffffffffffffffffff1673ffffffffffffffffffffffffffffffffffffffff160361035a57600092505050610439565b808061036590610e3f565b9150506102d6565b506000808473ffffffffffffffffffffffffffffffffffffffff16670de0b6b3a764000060015461039e9190610e87565b6040516103aa90610efa565b60006040518083038185875af1925050503d80600081146103e7576040519150601f19603f3d011682016040523d82523d6000602084013e6103ec565b606091505b509150915081610431576040517f08c379a000000000000000000000000000000000000000000000000000000000815260040161042890610f5b565b60405180910390fd5b600193505050505b919050565b6002818154811061044e57600080fd5b906000526020600020016000915054906101000a900473ffffffffffffffffffffffffffffffffffffffff1681565b60005481565b6000805434146104c8576040517f08c379a00000000000000000000000000000000000000000000000000000000081526004016104bf90610fc7565b60405180910390fd5b6000806003846040516104db9190611023565b908152602001604051809103902060009054906101000a900473ffffffffffffffffffffffffffffffffffffffff1673ffffffffffffffffffffffffffffffffffffffff163460405161052d90610efa565b60006040518083038185875af1925050503d806000811461056a576040519150601f19603f3d011682016040523d82523d6000602084013e61056f565b606091505b5091509150816105b4576040517f08c379a00000000000000000000000000000000000000000000000000000000081526004016105ab90610f5b565b60405180910390fd5b600460003373ffffffffffffffffffffffffffffffffffffffff1673ffffffffffffffffffffffffffffffffffffffff168152602001908152602001600020849080600181540180825580915050600190039060005260206000200160009091909190915090816106259190611246565b50600192505050919050565b600080600460008573ffffffffffffffffffffffffffffffffffffffff1673ffffffffffffffffffffffffffffffffffffffff168152602001908152602001600020805480602002602001604051908101604052809291908181526020016000905b8282101561073f5783829060005260206000200180546106b290611069565b80601f01602080910402602001604051908101604052809291908181526020018280546106de90611069565b801561072b5780601f106107005761010080835404028352916020019161072b565b820191906000526020600020905b81548152906001019060200180831161070e57829003601f168201915b505050505081526020019060010190610693565b50505050905060008151905060005b818110156107e257846040516020016107679190611023565b604051602081830303815290604052805190602001208382815181106107905761078f610de1565b5b60200260200101516040516020016107a89190611023565b60405160208183030381529060405280519060200120036107cf57600193505050506107ea565b80806107da90610e3f565b91505061074e565b506000925050505b92915050565b60015481565b6000336003836040516108099190611023565b908152602001604051809103902060006101000a81548173ffffffffffffffffffffffffffffffffffffffff021916908373ffffffffffffffffffffffffffffffffffffffff160217905550600460003373ffffffffffffffffffffffffffffffffffffffff1673ffffffffffffffffffffffffffffffffffffffff168152602001908152602001600020829080600181540180825580915050600190039060005260206000200160009091909190915090816108c69190611246565b5060019050919050565b600460205281600052604060002081815481106108ec57600080fd5b9060005260206000200160009150915050805461090890611069565b80601f016020809104026020016040519081016040528092919081815260200182805461093490611069565b80156109815780601f1061095657610100808354040283529160200191610981565b820191906000526020600020905b81548152906001019060200180831161096457829003601f168201915b505050505081565b6000604051905090565b600080fd5b600080fd5b600080fd5b600080fd5b6000601f19601f8301169050919050565b7f4e487b7100000000000000000000000000000000000000000000000000000000600052604160045260246000fd5b6109f0826109a7565b810181811067ffffffffffffffff82111715610a0f57610a0e6109b8565b5b80604052505050565b6000610a22610989565b9050610a2e82826109e7565b919050565b600067ffffffffffffffff821115610a4e57610a4d6109b8565b5b610a57826109a7565b9050602081019050919050565b82818337600083830152505050565b6000610a86610a8184610a33565b610a18565b905082815260208101848484011115610aa257610aa16109a2565b5b610aad848285610a64565b509392505050565b600082601f830112610aca57610ac961099d565b5b8135610ada848260208601610a73565b91505092915050565b600060208284031215610af957610af8610993565b5b600082013567ffffffffffffffff811115610b1757610b16610998565b5b610b2384828501610ab5565b91505092915050565b600073ffffffffffffffffffffffffffffffffffffffff82169050919050565b6000610b5782610b2c565b9050919050565b610b6781610b4c565b82525050565b6000602082019050610b826000830184610b5e565b92915050565b610b9181610b4c565b8114610b9c57600080fd5b50565b600081359050610bae81610b88565b92915050565b600060208284031215610bca57610bc9610993565b5b6000610bd884828501610b9f565b91505092915050565b60008115159050919050565b610bf681610be1565b82525050565b6000602082019050610c116000830184610bed565b92915050565b6000819050919050565b610c2a81610c17565b8114610c3557600080fd5b50565b600081359050610c4781610c21565b92915050565b600060208284031215610c6357610c62610993565b5b6000610c7184828501610c38565b91505092915050565b610c8381610c17565b82525050565b6000602082019050610c9e6000830184610c7a565b92915050565b60008060408385031215610cbb57610cba610993565b5b6000610cc985828601610b9f565b925050602083013567ffffffffffffffff811115610cea57610ce9610998565b5b610cf685828601610ab5565b9150509250929050565b60008060408385031215610d1757610d16610993565b5b6000610d2585828601610b9f565b9250506020610d3685828601610c38565b9150509250929050565b600081519050919050565b600082825260208201905092915050565b60005b83811015610d7a578082015181840152602081019050610d5f565b60008484015250505050565b6000610d9182610d40565b610d9b8185610d4b565b9350610dab818560208601610d5c565b610db4816109a7565b840191505092915050565b60006020820190508181036000830152610dd98184610d86565b905092915050565b7f4e487b7100000000000000000000000000000000000000000000000000000000600052603260045260246000fd5b7f4e487b7100000000000000000000000000000000000000000000000000000000600052601160045260246000fd5b6000610e4a82610c17565b91507fffffffffffffffffffffffffffffffffffffffffffffffffffffffffffffffff8203610e7c57610e7b610e10565b5b600182019050919050565b6000610e9282610c17565b9150610e9d83610c17565b9250828202610eab81610c17565b91508282048414831517610ec257610ec1610e10565b5b5092915050565b600081905092915050565b50565b6000610ee4600083610ec9565b9150610eef82610ed4565b600082019050919050565b6000610f0582610ed7565b9150819050919050565b7f4661696c656420746f2073656e64204574686572000000000000000000000000600082015250565b6000610f45601483610d4b565b9150610f5082610f0f565b602082019050919050565b60006020820190508181036000830152610f7481610f38565b9050919050565b7f496e636f72726563740000000000000000000000000000000000000000000000600082015250565b6000610fb1600983610d4b565b9150610fbc82610f7b565b602082019050919050565b60006020820190508181036000830152610fe081610fa4565b9050919050565b600081905092915050565b6000610ffd82610d40565b6110078185610fe7565b9350611017818560208601610d5c565b80840191505092915050565b600061102f8284610ff2565b915081905092915050565b7f4e487b7100000000000000000000000000000000000000000000000000000000600052602260045260246000fd5b6000600282049050600182168061108157607f821691505b6020821081036110945761109361103a565b5b50919050565b60008190508160005260206000209050919050565b60006020601f8301049050919050565b600082821b905092915050565b6000600883026110fc7fffffffffffffffffffffffffffffffffffffffffffffffffffffffffffffffff826110bf565b61110686836110bf565b95508019841693508086168417925050509392505050565b6000819050919050565b600061114361113e61113984610c17565b61111e565b610c17565b9050919050565b6000819050919050565b61115d83611128565b6111716111698261114a565b8484546110cc565b825550505050565b600090565b611186611179565b611191818484611154565b505050565b5b818110156111b5576111aa60008261117e565b600181019050611197565b5050565b601f8211156111fa576111cb8161109a565b6111d4846110af565b810160208510156111e3578190505b6111f76111ef856110af565b830182611196565b50505b505050565b600082821c905092915050565b600061121d600019846008026111ff565b1980831691505092915050565b6000611236838361120c565b9150826002028217905092915050565b61124f82610d40565b67ffffffffffffffff811115611268576112676109b8565b5b6112728254611069565b61127d8282856111b9565b600060209050601f8311600181146112b0576000841561129e578287015190505b6112a8858261122a565b865550611310565b601f1984166112be8661109a565b60005b828110156112e6578489015182556001820191506020850194506020810190506112c1565b8683101561130357848901516112ff601f89168261120c565b8355505b6001600288020188555050505b50505050505056fea26469706673582212201ae6358700d2c3e72879a8df4719cb4feb40360b35c47457aa2feff9bff63c4d64736f6c63430008130033",
  "immutableReferences": {},
  "source": "// SPDX-License-Identifier: MIT\npragma solidity >=0.4.22 <0.9.0;\n\n\ncontract Graph {\n\n  uint public graphPrice = 2 ether;\n  uint public userStartBalance = 11 ether;\n\n  address[] public users;\n  mapping(string => address) public graphOwner;\n  mapping(address => string[]) public access;\n\n  constructor() {}\n\n  function login(address user) public returns (bool) {\n    // Checks if user already has start payment\n    uint usersCount = users.length;\n    for (uint i = 0; i < usersCount; i++) {\n      if (users[i] == user) {\n        return false;\n      }\n    }\n\n    // Sending start balance\n\n    // Old method\n    // bool sent = payable(user).send(userStartBalance * 1 ether);\n\n    // New method\n    (bool sent, bytes memory data) = payable(user).call{value: userStartBalance * 1 ether}(\"\");\n    require(sent, \"Failed to send Ether\");\n\n    return true;\n  }\n\n  function hasAccess(address user, string memory graph) public view returns (bool) {\n    // Graphs which user bought\n    string[] memory userUnlockedGraphs = access[user];\n    uint graphsLength = userUnlockedGraphs.length;\n\n    // Check if needle graph unlocked\n    for (uint  i = 0; i < graphsLength; i++) {\n      if (keccak256(abi.encodePacked(userUnlockedGraphs[i])) == keccak256(abi.encodePacked(graph))) {\n        return true;\n      }\n    }\n\n    return false;\n  }\n\n  function buyAccess(string memory graph) public payable returns (bool) {\n    // Checks for correct amount\n    require(msg.value == graphPrice, \"Incorrect\");\n\n    // Transferring ether to graph owner\n    (bool sent, bytes memory data) = payable(graphOwner[graph]).call{value: msg.value}(\"\");\n\n    // Checks operation success\n    require(sent, \"Failed to send Ether\");\n\n    // Store access record\n    access[msg.sender].push(graph);\n\n    return true;\n  }\n\n  function newGraph(string memory graph) public returns (bool) {\n    graphOwner[graph] = msg.sender;\n    access[msg.sender].push(graph);\n\n    return true;\n  }\n}\n\n",
  "sourcePath": "/Users/shmd001/Desktop/graph_test/blockchain/contracts/Graph.sol",
  "compiler": {
    "name": "solc",
    "version": "0.8.19+commit.7dd6d404.Emscripten.clang"
  },
  "schemaVersion": "3.4.13",
  "updatedAt": "2023-05-20T11:47:54.819Z",
  "networkType": "ethereum",
  "devdoc": {
    "kind": "dev",
    "methods": {},
    "version": 1
  },
  "userdoc": {
    "kind": "user",
    "methods": {},
    "version": 1
  }
}